{
  "contractName": "Ballot",
  "abi": [
    {
      "constant": false,
      "inputs": [
        {
          "internalType": "address",
          "name": "_addr",
          "type": "address"
        }
      ],
      "name": "addCandidate",
      "outputs": [
        {
          "internalType": "bool",
          "name": "",
          "type": "bool"
        }
      ],
      "payable": true,
      "stateMutability": "payable",
      "type": "function"
    },
    {
      "constant": false,
      "inputs": [
        {
          "internalType": "address",
          "name": "_addr",
          "type": "address"
        }
      ],
      "name": "addVoter",
      "outputs": [
        {
          "internalType": "bool",
          "name": "",
          "type": "bool"
        }
      ],
      "payable": true,
      "stateMutability": "payable",
      "type": "function"
    },
    {
      "constant": true,
      "inputs": [],
      "name": "owner",
      "outputs": [
        {
          "internalType": "address",
          "name": "",
          "type": "address"
        }
      ],
      "payable": false,
      "stateMutability": "view",
      "type": "function"
    },
    {
      "constant": true,
      "inputs": [],
      "name": "totalCondidates",
      "outputs": [
        {
          "internalType": "uint256",
          "name": "",
          "type": "uint256"
        }
      ],
      "payable": false,
      "stateMutability": "view",
      "type": "function"
    },
    {
      "constant": false,
      "inputs": [
        {
          "internalType": "uint256",
          "name": "_num",
          "type": "uint256"
        }
      ],
      "name": "vote",
      "outputs": [
        {
          "internalType": "bool",
          "name": "",
          "type": "bool"
        }
      ],
      "payable": false,
      "stateMutability": "nonpayable",
      "type": "function"
    }
  ],
  "bytecode": "0x608060405233600160006101000a81548173ffffffffffffffffffffffffffffffffffffffff021916908373ffffffffffffffffffffffffffffffffffffffff160217905550600080819055506108568061005b6000396000f3fe60806040526004361061004a5760003560e01c80630121b93f1461004f5780630a4d3ae4146100a25780633acd75f8146100cd5780638da5cb5b14610129578063f4ab9adf14610180575b600080fd5b34801561005b57600080fd5b506100886004803603602081101561007257600080fd5b81019080803590602001909291905050506101dc565b604051808215151515815260200191505060405180910390f35b3480156100ae57600080fd5b506100b7610546565b6040518082815260200191505060405180910390f35b61010f600480360360208110156100e357600080fd5b81019080803573ffffffffffffffffffffffffffffffffffffffff16906020019092919050505061054c565b604051808215151515815260200191505060405180910390f35b34801561013557600080fd5b5061013e6106e6565b604051808273ffffffffffffffffffffffffffffffffffffffff1673ffffffffffffffffffffffffffffffffffffffff16815260200191505060405180910390f35b6101c26004803603602081101561019657600080fd5b81019080803573ffffffffffffffffffffffffffffffffffffffff16906020019092919050505061070c565b604051808215151515815260200191505060405180910390f35b600060011515600660003373ffffffffffffffffffffffffffffffffffffffff1673ffffffffffffffffffffffffffffffffffffffff16815260200190815260200160002060009054906101000a900460ff161515146102a4576040517f08c379a00000000000000000000000000000000000000000000000000000000081526004018080602001828103825260188152602001807f766f746572206d7573742062652072656769737465726564000000000000000081525060200191505060405180910390fd5b60001515600460003373ffffffffffffffffffffffffffffffffffffffff1673ffffffffffffffffffffffffffffffffffffffff16815260200190815260200160002060009054906101000a900460ff1615151461036a576040517f08c379a000000000000000000000000000000000000000000000000000000000815260040180806020018281038252600d8152602001807f616c726561647920766f7465640000000000000000000000000000000000000081525060200191505060405180910390fd5b60011515600560006002600086815260200190815260200160002060009054906101000a900473ffffffffffffffffffffffffffffffffffffffff1673ffffffffffffffffffffffffffffffffffffffff1673ffffffffffffffffffffffffffffffffffffffff16815260200190815260200160002060009054906101000a900460ff16151514610463576040517f08c379a00000000000000000000000000000000000000000000000000000000081526004018080602001828103825260158152602001807f4e6f7420612076616c69642063616e646964617465000000000000000000000081525060200191505060405180910390fd5b600360006002600085815260200190815260200160002060009054906101000a900473ffffffffffffffffffffffffffffffffffffffff1673ffffffffffffffffffffffffffffffffffffffff1673ffffffffffffffffffffffffffffffffffffffff168152602001908152602001600020600081548092919060010191905055506001600460003373ffffffffffffffffffffffffffffffffffffffff1673ffffffffffffffffffffffffffffffffffffffff16815260200190815260200160002060006101000a81548160ff02191690831515021790555060019050919050565b60005481565b6000600160009054906101000a900473ffffffffffffffffffffffffffffffffffffffff1673ffffffffffffffffffffffffffffffffffffffff163373ffffffffffffffffffffffffffffffffffffffff16146105a857600080fd5b600080815480929190600101919050555081600260008054815260200190815260200160002060006101000a81548173ffffffffffffffffffffffffffffffffffffffff021916908373ffffffffffffffffffffffffffffffffffffffff160217905550600160036000600260008054815260200190815260200160002060009054906101000a900473ffffffffffffffffffffffffffffffffffffffff1673ffffffffffffffffffffffffffffffffffffffff1673ffffffffffffffffffffffffffffffffffffffff168152602001908152602001600020819055506001600560008473ffffffffffffffffffffffffffffffffffffffff1673ffffffffffffffffffffffffffffffffffffffff16815260200190815260200160002060006101000a81548160ff02191690831515021790555060019050919050565b600160009054906101000a900473ffffffffffffffffffffffffffffffffffffffff1681565b6000600160009054906101000a900473ffffffffffffffffffffffffffffffffffffffff1673ffffffffffffffffffffffffffffffffffffffff163373ffffffffffffffffffffffffffffffffffffffff161461076857600080fd5b6000600460008473ffffffffffffffffffffffffffffffffffffffff1673ffffffffffffffffffffffffffffffffffffffff16815260200190815260200160002060006101000a81548160ff0219169083151502179055506001600660008473ffffffffffffffffffffffffffffffffffffffff1673ffffffffffffffffffffffffffffffffffffffff16815260200190815260200160002060006101000a81548160ff0219169083151502179055506001905091905056fea265627a7a72315820ec44004b2b142b9abb84d066d2944aa37e5247a7cd6807b08bd527ad156468b564736f6c63430005100032",
  "source": "// SPDX-License-Identifier: MIT\npragma solidity >=0.4.21 <0.9.0;\n\ncontract Voting{\n    uint public totalCondidates;\n    address public owner;\n\n    constructor()public{\n        owner = msg.sender;\n        totalCondidates = 0;\n    }\n\n    modifier onlyOwner(){\n        require(msg.sender == owner);\n        _;\n    }\n\n\n    mapping(uint256 => address) candidates;\n    mapping (address=>uint256) candidatesVote;\n    mapping(address => bool) voted;\n    mapping(address=>bool) IsCandidate;\n    mapping(address=>bool) IsVoter;\n\n    function addCandidate(address _addr) onlyOwner external payable returns(bool){\n        totalCondidates++;\n        candidates[totalCondidates] = _addr;\n        candidatesVote[candidates[totalCondidates]] = 1;\n        IsCandidate[_addr] = true;\n        return true;\n    }\n\n    function addVoter(address _addr) onlyOwner external payable returns(bool){\n            voted[_addr] = false;\n            IsVoter[_addr] = true;\n            return true;\n        }\n}\n\ncontract Ballot is Voting{\n\n    function vote(uint _num)external returns(bool){\n        require(IsVoter[msg.sender] == true,'voter must be registered');\n        require(voted[msg.sender] == false,'already voted');\n        require(IsCandidate[candidates[_num]] == true,'Not a valid candidate');\n        candidatesVote[candidates[_num]]++;\n        voted[msg.sender] = true;\n        return true;\n\n\n    }\n\n}\n",
  "sourcePath": "/home/aduttya/Documents/voting/contracts/voting.sol",
  "compiler": {
    "name": "solc",
    "version": "0.5.16+commit.9c3226ce.Emscripten.clang"
  },
  "schemaVersion": "3.4.3",
  "updatedAt": "2021-08-29T08:58:04.594Z",
  "networkType": "ethereum",
  "devdoc": {
    "methods": {}
  },
  "userdoc": {
    "methods": {}
  }
}