{
  "contractName": "Voting",
  "abi": [
    {
      "inputs": [],
      "payable": false,
      "stateMutability": "nonpayable",
      "type": "constructor"
    },
    {
      "constant": true,
      "inputs": [
        {
          "internalType": "address",
          "name": "",
          "type": "address"
        }
      ],
      "name": "Voters",
      "outputs": [
        {
          "internalType": "bool",
          "name": "auth",
          "type": "bool"
        },
        {
          "internalType": "bool",
          "name": "voted",
          "type": "bool"
        },
        {
          "internalType": "uint256",
          "name": "vote",
          "type": "uint256"
        }
      ],
      "payable": false,
      "stateMutability": "view",
      "type": "function"
    },
    {
      "constant": true,
      "inputs": [],
      "name": "admin",
      "outputs": [
        {
          "internalType": "address",
          "name": "",
          "type": "address"
        }
      ],
      "payable": false,
      "stateMutability": "view",
      "type": "function"
    },
    {
      "constant": true,
      "inputs": [
        {
          "internalType": "uint256",
          "name": "",
          "type": "uint256"
        }
      ],
      "name": "candidates",
      "outputs": [
        {
          "internalType": "string",
          "name": "name",
          "type": "string"
        },
        {
          "internalType": "uint256",
          "name": "voteCount",
          "type": "uint256"
        }
      ],
      "payable": false,
      "stateMutability": "view",
      "type": "function"
    },
    {
      "constant": true,
      "inputs": [],
      "name": "totalCandidates",
      "outputs": [
        {
          "internalType": "uint256",
          "name": "",
          "type": "uint256"
        }
      ],
      "payable": false,
      "stateMutability": "view",
      "type": "function"
    },
    {
      "constant": false,
      "inputs": [
        {
          "internalType": "address",
          "name": "_addr",
          "type": "address"
        }
      ],
      "name": "Addvoter",
      "outputs": [],
      "payable": false,
      "stateMutability": "nonpayable",
      "type": "function"
    },
    {
      "constant": false,
      "inputs": [
        {
          "internalType": "string",
          "name": "_name",
          "type": "string"
        }
      ],
      "name": "Addcandidate",
      "outputs": [],
      "payable": false,
      "stateMutability": "nonpayable",
      "type": "function"
    },
    {
      "constant": false,
      "inputs": [
        {
          "internalType": "uint256",
          "name": "_num",
          "type": "uint256"
        }
      ],
      "name": "vote",
      "outputs": [
        {
          "internalType": "bool",
          "name": "",
          "type": "bool"
        }
      ],
      "payable": false,
      "stateMutability": "nonpayable",
      "type": "function"
    }
  ],
  "bytecode": "0x608060405234801561001057600080fd5b5033600460006101000a81548173ffffffffffffffffffffffffffffffffffffffff021916908373ffffffffffffffffffffffffffffffffffffffff1602179055506000808190555042600181905550610a218061006f6000396000f3fe608060405234801561001057600080fd5b506004361061007d5760003560e01c80638766b9a81161005b5780638766b9a814610194578063e86d4bfa1461020d578063f851a44014610251578063fdedaa8a1461029b5761007d565b80630121b93f146100825780633477ee2e146100c85780633866965c14610176575b600080fd5b6100ae6004803603602081101561009857600080fd5b8101908080359060200190929190505050610309565b604051808215151515815260200191505060405180910390f35b6100f4600480360360208110156100de57600080fd5b8101908080359060200190929190505050610572565b6040518080602001838152602001828103825284818151815260200191508051906020019080838360005b8381101561013a57808201518184015260208101905061011f565b50505050905090810190601f1680156101675780820380516001836020036101000a031916815260200191505b50935050505060405180910390f35b61017e61063b565b6040518082815260200191505060405180910390f35b61020b600480360360208110156101aa57600080fd5b81019080803590602001906401000000008111156101c757600080fd5b8201836020820111156101d957600080fd5b803590602001918460018302840111640100000000831117156101fb57600080fd5b9091929391929390505050610641565b005b61024f6004803603602081101561022357600080fd5b81019080803573ffffffffffffffffffffffffffffffffffffffff1690602001909291905050506107ad565b005b6102596108b1565b604051808273ffffffffffffffffffffffffffffffffffffffff1673ffffffffffffffffffffffffffffffffffffffff16815260200191505060405180910390f35b6102dd600480360360208110156102b157600080fd5b81019080803573ffffffffffffffffffffffffffffffffffffffff1690602001909291905050506108d7565b604051808415151515815260200183151515158152602001828152602001935050505060405180910390f35b6000600260003373ffffffffffffffffffffffffffffffffffffffff1673ffffffffffffffffffffffffffffffffffffffff16815260200190815260200160002060000160009054906101000a900460ff166103cd576040517f08c379a00000000000000000000000000000000000000000000000000000000081526004018080602001828103825260128152602001807f556e617574686f72697a656420766f746572000000000000000000000000000081525060200191505060405180910390fd5b600260003373ffffffffffffffffffffffffffffffffffffffff1673ffffffffffffffffffffffffffffffffffffffff16815260200190815260200160002060000160019054906101000a900460ff1615610490576040517f08c379a000000000000000000000000000000000000000000000000000000000815260040180806020018281038252600d8152602001807f616c726561647920766f7465640000000000000000000000000000000000000081525060200191505060405180910390fd5b60016003838154811061049f57fe5b9060005260206000209060020201600101600082825401925050819055506001600260003373ffffffffffffffffffffffffffffffffffffffff1673ffffffffffffffffffffffffffffffffffffffff16815260200190815260200160002060000160016101000a81548160ff0219169083151502179055506001600260003373ffffffffffffffffffffffffffffffffffffffff1673ffffffffffffffffffffffffffffffffffffffff1681526020019081526020016000206001016000828254019250508190555060019050919050565b6003818154811061057f57fe5b9060005260206000209060020201600091509050806000018054600181600116156101000203166002900480601f01602080910402602001604051908101604052809291908181526020018280546001816001161561010002031660029004801561062b5780601f106106005761010080835404028352916020019161062b565b820191906000526020600020905b81548152906001019060200180831161060e57829003601f168201915b5050505050908060010154905082565b60005481565b600460009054906101000a900473ffffffffffffffffffffffffffffffffffffffff1673ffffffffffffffffffffffffffffffffffffffff163373ffffffffffffffffffffffffffffffffffffffff16146106e7576040517f08c379a000000000000000000000000000000000000000000000000000000000815260040180806020018281038252602c8152602001806109c1602c913960400191505060405180910390fd5b6003604051806040016040528084848080601f016020809104026020016040519081016040528093929190818152602001838380828437600081840152601f19601f820116905080830192505050505050508152602001600081525090806001815401808255809150509060018203906000526020600020906002020160009091929091909150600082015181600001908051906020019061078a92919061091b565b506020820151816001015550505060008081548092919060010191905055505050565b600460009054906101000a900473ffffffffffffffffffffffffffffffffffffffff1673ffffffffffffffffffffffffffffffffffffffff163373ffffffffffffffffffffffffffffffffffffffff1614610853576040517f08c379a000000000000000000000000000000000000000000000000000000000815260040180806020018281038252602c8152602001806109c1602c913960400191505060405180910390fd5b6001600260008373ffffffffffffffffffffffffffffffffffffffff1673ffffffffffffffffffffffffffffffffffffffff16815260200190815260200160002060000160006101000a81548160ff02191690831515021790555050565b600460009054906101000a900473ffffffffffffffffffffffffffffffffffffffff1681565b60026020528060005260406000206000915090508060000160009054906101000a900460ff16908060000160019054906101000a900460ff16908060010154905083565b828054600181600116156101000203166002900490600052602060002090601f016020900481019282601f1061095c57805160ff191683800117855561098a565b8280016001018555821561098a579182015b8281111561098957825182559160200191906001019061096e565b5b509050610997919061099b565b5090565b6109bd91905b808211156109b95760008160009055506001016109a1565b5090565b9056fe666f722074686973206f7065726174696f6e206f6e6c792061646d696e206861732070726576696c61676573a265627a7a72315820efc5ffa1accf4df17bcac89221f929f1f0fe28d37fb7aa0688524c21f5ef75d764736f6c63430005100032",
  "source": "// SPDX-License-Identifier: MIT\npragma solidity >=0.4.21 <0.9.0;\n\ncontract Voting{\n\n    struct Voter{\n        bool auth;\n        bool voted;\n        uint256 vote;\n    }\n    uint public totalCandidates;\n    uint electionStartingTime;\n    struct candidate{\n        string name;\n        uint256 voteCount;\n    }\n\n    mapping(address => Voter) public Voters;\n    candidate [] public candidates;\n    address public admin;\n    constructor() public{\n        admin = msg.sender;\n        totalCandidates = 0;\n        electionStartingTime = block.timestamp;\n    }\n    modifier onlyOwner{\n        require(msg.sender == admin,'for this operation only admin has previlages');\n        _;\n    }\n\n    function Addvoter(address _addr)external onlyOwner{\n        Voters[_addr].auth = true;\n    }\n\n    function Addcandidate(string calldata _name) external onlyOwner{\n        candidates.push(candidate(_name,0));\n        totalCandidates++;\n    }\n\n    function vote(uint _num) external returns(bool){\n        require(Voters[msg.sender].auth,'Unauthorized voter');\n        require(!Voters[msg.sender].voted,'already voted');\n        candidates[_num].voteCount += 1;\n        Voters[msg.sender].voted = true;\n        Voters[msg.sender].vote += 1;\n\n        return true;\n    }\n\n}",
  "sourcePath": "/home/aduttya/Documents/voting/contracts/voting.sol",
  "compiler": {
    "name": "solc",
    "version": "0.5.16+commit.9c3226ce.Emscripten.clang"
  },
  "schemaVersion": "3.4.3",
  "updatedAt": "2021-09-02T05:39:05.520Z",
  "networkType": "ethereum",
  "devdoc": {
    "methods": {}
  },
  "userdoc": {
    "methods": {}
  }
}