{
  "contractName": "Voting",
  "abi": [
    {
      "inputs": [],
      "payable": false,
      "stateMutability": "nonpayable",
      "type": "constructor"
    },
    {
      "constant": true,
      "inputs": [
        {
          "internalType": "address",
          "name": "",
          "type": "address"
        }
      ],
      "name": "Voters",
      "outputs": [
        {
          "internalType": "bool",
          "name": "auth",
          "type": "bool"
        },
        {
          "internalType": "bool",
          "name": "voted",
          "type": "bool"
        },
        {
          "internalType": "uint256",
          "name": "vote",
          "type": "uint256"
        }
      ],
      "payable": false,
      "stateMutability": "view",
      "type": "function"
    },
    {
      "constant": true,
      "inputs": [],
      "name": "admin",
      "outputs": [
        {
          "internalType": "address",
          "name": "",
          "type": "address"
        }
      ],
      "payable": false,
      "stateMutability": "view",
      "type": "function"
    },
    {
      "constant": true,
      "inputs": [
        {
          "internalType": "uint256",
          "name": "",
          "type": "uint256"
        }
      ],
      "name": "candidates",
      "outputs": [
        {
          "internalType": "string",
          "name": "name",
          "type": "string"
        },
        {
          "internalType": "uint256",
          "name": "voteCount",
          "type": "uint256"
        }
      ],
      "payable": false,
      "stateMutability": "view",
      "type": "function"
    },
    {
      "constant": true,
      "inputs": [],
      "name": "endElection",
      "outputs": [
        {
          "internalType": "bool",
          "name": "",
          "type": "bool"
        }
      ],
      "payable": false,
      "stateMutability": "view",
      "type": "function"
    },
    {
      "constant": true,
      "inputs": [],
      "name": "startElection",
      "outputs": [
        {
          "internalType": "bool",
          "name": "",
          "type": "bool"
        }
      ],
      "payable": false,
      "stateMutability": "view",
      "type": "function"
    },
    {
      "constant": true,
      "inputs": [],
      "name": "totalCandidates",
      "outputs": [
        {
          "internalType": "uint256",
          "name": "",
          "type": "uint256"
        }
      ],
      "payable": false,
      "stateMutability": "view",
      "type": "function"
    },
    {
      "constant": true,
      "inputs": [],
      "name": "totalVotes",
      "outputs": [
        {
          "internalType": "uint256",
          "name": "",
          "type": "uint256"
        }
      ],
      "payable": false,
      "stateMutability": "view",
      "type": "function"
    },
    {
      "constant": false,
      "inputs": [
        {
          "internalType": "address",
          "name": "_addr",
          "type": "address"
        }
      ],
      "name": "Addvoter",
      "outputs": [],
      "payable": false,
      "stateMutability": "nonpayable",
      "type": "function"
    },
    {
      "constant": false,
      "inputs": [
        {
          "internalType": "string",
          "name": "_name",
          "type": "string"
        }
      ],
      "name": "Addcandidate",
      "outputs": [],
      "payable": false,
      "stateMutability": "nonpayable",
      "type": "function"
    },
    {
      "constant": false,
      "inputs": [],
      "name": "startVoting",
      "outputs": [],
      "payable": false,
      "stateMutability": "nonpayable",
      "type": "function"
    },
    {
      "constant": false,
      "inputs": [
        {
          "internalType": "uint256",
          "name": "_num",
          "type": "uint256"
        }
      ],
      "name": "vote",
      "outputs": [
        {
          "internalType": "bool",
          "name": "",
          "type": "bool"
        }
      ],
      "payable": false,
      "stateMutability": "nonpayable",
      "type": "function"
    },
    {
      "constant": false,
      "inputs": [],
      "name": "endVoting",
      "outputs": [],
      "payable": false,
      "stateMutability": "nonpayable",
      "type": "function"
    }
  ],
  "bytecode": "0x608060405234801561001057600080fd5b5033600060026101000a81548173ffffffffffffffffffffffffffffffffffffffff021916908373ffffffffffffffffffffffffffffffffffffffff1602179055506000600181905550600060038190555042600281905550610ed0806100786000396000f3fe608060405234801561001057600080fd5b50600436106100b45760003560e01c806362d73eb81161007157806362d73eb8146102155780638766b9a814610237578063c3403ddf146102b0578063e86d4bfa146102ba578063f851a440146102fe578063fdedaa8a14610348576100b4565b80630121b93f146100b95780630d15fd77146100ff5780631ec6b60a1461011d5780633477ee2e146101275780633866965c146101d557806359f78468146101f3575b600080fd5b6100e5600480360360208110156100cf57600080fd5b81019080803590602001909291905050506103b6565b604051808215151515815260200191505060405180910390f35b6101076106b9565b6040518082815260200191505060405180910390f35b6101256106bf565b005b6101536004803603602081101561013d57600080fd5b8101908080359060200190929190505050610809565b6040518080602001838152602001828103825284818151815260200191508051906020019080838360005b8381101561019957808201518184015260208101905061017e565b50505050905090810190601f1680156101c65780820380516001836020036101000a031916815260200191505b50935050505060405180910390f35b6101dd6108d2565b6040518082815260200191505060405180910390f35b6101fb6108d8565b604051808215151515815260200191505060405180910390f35b61021d6108eb565b604051808215151515815260200191505060405180910390f35b6102ae6004803603602081101561024d57600080fd5b810190808035906020019064010000000081111561026a57600080fd5b82018360208201111561027c57600080fd5b8035906020019184600183028401116401000000008311171561029e57600080fd5b90919293919293905050506108fd565b005b6102b8610af2565b005b6102fc600480360360208110156102d057600080fd5b81019080803573ffffffffffffffffffffffffffffffffffffffff169060200190929190505050610bd4565b005b610306610d60565b604051808273ffffffffffffffffffffffffffffffffffffffff1673ffffffffffffffffffffffffffffffffffffffff16815260200191505060405180910390f35b61038a6004803603602081101561035e57600080fd5b81019080803573ffffffffffffffffffffffffffffffffffffffff169060200190929190505050610d86565b604051808415151515815260200183151515158152602001828152602001935050505060405180910390f35b6000600115156000809054906101000a900460ff16151514610440576040517f08c379a000000000000000000000000000000000000000000000000000000000815260040180806020018281038252601c8152602001807f456c656374696f6e20686173206e6f742073746172746564207965740000000081525060200191505060405180910390fd5b600460003373ffffffffffffffffffffffffffffffffffffffff1673ffffffffffffffffffffffffffffffffffffffff16815260200190815260200160002060000160009054906101000a900460ff16610502576040517f08c379a00000000000000000000000000000000000000000000000000000000081526004018080602001828103825260128152602001807f556e617574686f72697a656420766f746572000000000000000000000000000081525060200191505060405180910390fd5b600460003373ffffffffffffffffffffffffffffffffffffffff1673ffffffffffffffffffffffffffffffffffffffff16815260200190815260200160002060000160019054906101000a900460ff16156105c5576040517f08c379a000000000000000000000000000000000000000000000000000000000815260040180806020018281038252600d8152602001807f616c726561647920766f7465640000000000000000000000000000000000000081525060200191505060405180910390fd5b6001600583815481106105d457fe5b9060005260206000209060020201600101600082825401925050819055506001600460003373ffffffffffffffffffffffffffffffffffffffff1673ffffffffffffffffffffffffffffffffffffffff16815260200190815260200160002060000160016101000a81548160ff0219169083151502179055506001600460003373ffffffffffffffffffffffffffffffffffffffff1673ffffffffffffffffffffffffffffffffffffffff1681526020019081526020016000206001016000828254019250508190555060036000815480929190600101919050555060019050919050565b60035481565b600060029054906101000a900473ffffffffffffffffffffffffffffffffffffffff1673ffffffffffffffffffffffffffffffffffffffff163373ffffffffffffffffffffffffffffffffffffffff1614610765576040517f08c379a000000000000000000000000000000000000000000000000000000000815260040180806020018281038252602c815260200180610e70602c913960400191505060405180910390fd5b600015156000809054906101000a900460ff161515146107ed576040517f08c379a00000000000000000000000000000000000000000000000000000000081526004018080602001828103825260198152602001807f456c656374696f6e20686173206265656e20737461727465640000000000000081525060200191505060405180910390fd5b60016000806101000a81548160ff021916908315150217905550565b6005818154811061081657fe5b9060005260206000209060020201600091509050806000018054600181600116156101000203166002900480601f0160208091040260200160405190810160405280929190818152602001828054600181600116156101000203166002900480156108c25780601f10610897576101008083540402835291602001916108c2565b820191906000526020600020905b8154815290600101906020018083116108a557829003601f168201915b5050505050908060010154905082565b60015481565b600060019054906101000a900460ff1681565b6000809054906101000a900460ff1681565b600060029054906101000a900473ffffffffffffffffffffffffffffffffffffffff1673ffffffffffffffffffffffffffffffffffffffff163373ffffffffffffffffffffffffffffffffffffffff16146109a3576040517f08c379a000000000000000000000000000000000000000000000000000000000815260040180806020018281038252602c815260200180610e70602c913960400191505060405180910390fd5b600015156000809054906101000a900460ff16151514610a2b576040517f08c379a00000000000000000000000000000000000000000000000000000000081526004018080602001828103825260198152602001807f456c656374696f6e20686173206265656e20737461727465640000000000000081525060200191505060405180910390fd5b6005604051806040016040528084848080601f016020809104026020016040519081016040528093929190818152602001838380828437600081840152601f19601f8201169050808301925050505050505081526020016000815250908060018154018082558091505090600182039060005260206000209060020201600090919290919091506000820151816000019080519060200190610ace929190610dca565b50602082015181600101555050506001600081548092919060010191905055505050565b600060029054906101000a900473ffffffffffffffffffffffffffffffffffffffff1673ffffffffffffffffffffffffffffffffffffffff163373ffffffffffffffffffffffffffffffffffffffff1614610b98576040517f08c379a000000000000000000000000000000000000000000000000000000000815260040180806020018281038252602c815260200180610e70602c913960400191505060405180910390fd5b600115156000809054906101000a900460ff16151514610bb757600080fd5b6001600060016101000a81548160ff021916908315150217905550565b600060029054906101000a900473ffffffffffffffffffffffffffffffffffffffff1673ffffffffffffffffffffffffffffffffffffffff163373ffffffffffffffffffffffffffffffffffffffff1614610c7a576040517f08c379a000000000000000000000000000000000000000000000000000000000815260040180806020018281038252602c815260200180610e70602c913960400191505060405180910390fd5b600015156000809054906101000a900460ff16151514610d02576040517f08c379a00000000000000000000000000000000000000000000000000000000081526004018080602001828103825260198152602001807f456c656374696f6e20686173206265656e20737461727465640000000000000081525060200191505060405180910390fd5b6001600460008373ffffffffffffffffffffffffffffffffffffffff1673ffffffffffffffffffffffffffffffffffffffff16815260200190815260200160002060000160006101000a81548160ff02191690831515021790555050565b600060029054906101000a900473ffffffffffffffffffffffffffffffffffffffff1681565b60046020528060005260406000206000915090508060000160009054906101000a900460ff16908060000160019054906101000a900460ff16908060010154905083565b828054600181600116156101000203166002900490600052602060002090601f016020900481019282601f10610e0b57805160ff1916838001178555610e39565b82800160010185558215610e39579182015b82811115610e38578251825591602001919060010190610e1d565b5b509050610e469190610e4a565b5090565b610e6c91905b80821115610e68576000816000905550600101610e50565b5090565b9056fe666f722074686973206f7065726174696f6e206f6e6c792061646d696e206861732070726576696c61676573a265627a7a72315820cef2f8538ba81bcb3c3fa4d4a14924da49b7c5a40e0760a0274df71d7043bd0564736f6c63430005100032",
  "source": "// SPDX-License-Identifier: MIT\npragma solidity >=0.4.21 <0.9.0;\n\ncontract Voting{\n    // state variables \n    bool public startElection;\n    bool public endElection;\n    address public admin;\n    uint public totalCandidates;\n    uint electionStartingTime;\n    uint public totalVotes;\n\n    // structure for voters and candidates\n    struct Voter{\n        bool auth;\n        bool voted;\n        uint256 vote;}\n\n    struct candidate{\n        string name;\n        uint256 voteCount;}\n\n    // storing voters and candidates data\n\n    mapping(address => Voter) public Voters;\n    candidate [] public candidates;\n\n\n    // constructer to set the owner and other necessary variables\n    constructor() public{\n        admin = msg.sender;\n        totalCandidates = 0;\n        totalVotes = 0;\n        electionStartingTime = block.timestamp;\n    }\n\n    // modifiers to maintain certain conditions\n    modifier onlyOwner{\n        require(msg.sender == admin,'for this operation only admin has previlages');\n        _;\n    }\n    modifier beforeElectionStart{\n        require(startElection == false,'Election has been started');\n        _;\n    }\n    modifier afterEndElection{\n        require(endElection == true,'Election has been not ended yet');\n        _;\n    }\n\n\n    // functions to add votes and candidates\n    function Addvoter(address _addr)external onlyOwner beforeElectionStart{\n        Voters[_addr].auth = true;\n    }\n    \n    function Addcandidate(string calldata _name) external onlyOwner beforeElectionStart{\n        candidates.push(candidate(_name,0));\n        totalCandidates++;\n    }\n\n\n    // function to start voting\n    function startVoting()external onlyOwner beforeElectionStart{\n        startElection = true;\n    }\n\n    // funtion for voting (only registered voters can participate in voting)\n    function vote(uint _num) external returns(bool){\n        require(startElection == true,'Election has not started yet');\n        require(Voters[msg.sender].auth,'Unauthorized voter');\n        require(!Voters[msg.sender].voted,'already voted');\n        candidates[_num].voteCount += 1;\n        Voters[msg.sender].voted = true;\n        Voters[msg.sender].vote += 1;\n        totalVotes++;\n        return true;\n    }\n\n    // function to end voting process\n    function endVoting()external onlyOwner{\n        require(startElection == true);\n        endElection = true;\n    }\n\n}",
  "sourcePath": "/home/aduttya/Documents/voting/contracts/voting.sol",
  "compiler": {
    "name": "solc",
    "version": "0.5.16+commit.9c3226ce.Emscripten.clang"
  },
  "schemaVersion": "3.4.3",
  "updatedAt": "2021-09-02T14:05:03.952Z",
  "networkType": "ethereum",
  "devdoc": {
    "methods": {}
  },
  "userdoc": {
    "methods": {}
  }
}