{
  "contractName": "Voting",
  "abi": [
    {
      "inputs": [],
      "payable": false,
      "stateMutability": "nonpayable",
      "type": "constructor"
    },
    {
      "constant": true,
      "inputs": [
        {
          "internalType": "address",
          "name": "",
          "type": "address"
        }
      ],
      "name": "Voters",
      "outputs": [
        {
          "internalType": "bool",
          "name": "auth",
          "type": "bool"
        },
        {
          "internalType": "bool",
          "name": "voted",
          "type": "bool"
        },
        {
          "internalType": "uint256",
          "name": "vote",
          "type": "uint256"
        }
      ],
      "payable": false,
      "stateMutability": "view",
      "type": "function"
    },
    {
      "constant": true,
      "inputs": [],
      "name": "admin",
      "outputs": [
        {
          "internalType": "address",
          "name": "",
          "type": "address"
        }
      ],
      "payable": false,
      "stateMutability": "view",
      "type": "function"
    },
    {
      "constant": true,
      "inputs": [
        {
          "internalType": "uint256",
          "name": "",
          "type": "uint256"
        }
      ],
      "name": "candidates",
      "outputs": [
        {
          "internalType": "string",
          "name": "name",
          "type": "string"
        },
        {
          "internalType": "uint256",
          "name": "voteCount",
          "type": "uint256"
        }
      ],
      "payable": false,
      "stateMutability": "view",
      "type": "function"
    },
    {
      "constant": false,
      "inputs": [
        {
          "internalType": "address",
          "name": "_addr",
          "type": "address"
        }
      ],
      "name": "Addvoter",
      "outputs": [],
      "payable": false,
      "stateMutability": "nonpayable",
      "type": "function"
    },
    {
      "constant": false,
      "inputs": [
        {
          "internalType": "string",
          "name": "_name",
          "type": "string"
        }
      ],
      "name": "Addcandidate",
      "outputs": [],
      "payable": false,
      "stateMutability": "nonpayable",
      "type": "function"
    },
    {
      "constant": false,
      "inputs": [
        {
          "internalType": "uint256",
          "name": "_num",
          "type": "uint256"
        }
      ],
      "name": "vote",
      "outputs": [
        {
          "internalType": "bool",
          "name": "",
          "type": "bool"
        }
      ],
      "payable": false,
      "stateMutability": "nonpayable",
      "type": "function"
    },
    {
      "constant": true,
      "inputs": [],
      "name": "declareWinner",
      "outputs": [
        {
          "internalType": "string",
          "name": "",
          "type": "string"
        },
        {
          "internalType": "uint256",
          "name": "",
          "type": "uint256"
        }
      ],
      "payable": false,
      "stateMutability": "view",
      "type": "function"
    }
  ],
  "bytecode": "0x608060405234801561001057600080fd5b5033600260006101000a81548173ffffffffffffffffffffffffffffffffffffffff021916908373ffffffffffffffffffffffffffffffffffffffff160217905550610a2d806100616000396000f3fe608060405234801561001057600080fd5b506004361061007d5760003560e01c80638766b9a81161005b5780638766b9a814610200578063e86d4bfa14610279578063f851a440146102bd578063fdedaa8a146103075761007d565b80630121b93f1461008257806314034bd2146100c85780633477ee2e14610152575b600080fd5b6100ae6004803603602081101561009857600080fd5b8101908080359060200190929190505050610375565b604051808215151515815260200191505060405180910390f35b6100d06104b7565b6040518080602001838152602001828103825284818151815260200191508051906020019080838360005b838110156101165780820151818401526020810190506100fb565b50505050905090810190601f1680156101435780820380516001836020036101000a031916815260200191505b50935050505060405180910390f35b61017e6004803603602081101561016857600080fd5b810190808035906020019092919050505061065a565b6040518080602001838152602001828103825284818151815260200191508051906020019080838360005b838110156101c45780820151818401526020810190506101a9565b50505050905090810190601f1680156101f15780820380516001836020036101000a031916815260200191505b50935050505060405180910390f35b6102776004803603602081101561021657600080fd5b810190808035906020019064010000000081111561023357600080fd5b82018360208201111561024557600080fd5b8035906020019184600183028401116401000000008311171561026757600080fd5b9091929391929390505050610723565b005b6102bb6004803603602081101561028f57600080fd5b81019080803573ffffffffffffffffffffffffffffffffffffffff169060200190929190505050610832565b005b6102c56108e9565b604051808273ffffffffffffffffffffffffffffffffffffffff1673ffffffffffffffffffffffffffffffffffffffff16815260200191505060405180910390f35b6103496004803603602081101561031d57600080fd5b81019080803573ffffffffffffffffffffffffffffffffffffffff16906020019092919050505061090f565b604051808415151515815260200183151515158152602001828152602001935050505060405180910390f35b60008060003373ffffffffffffffffffffffffffffffffffffffff1673ffffffffffffffffffffffffffffffffffffffff16815260200190815260200160002060000160009054906101000a900460ff166103cf57600080fd5b6000803373ffffffffffffffffffffffffffffffffffffffff1673ffffffffffffffffffffffffffffffffffffffff16815260200190815260200160002060000160019054906101000a900460ff161561042857600080fd5b600180838154811061043657fe5b90600052602060002090600202016001016000828254019250508190555060016000803373ffffffffffffffffffffffffffffffffffffffff1673ffffffffffffffffffffffffffffffffffffffff16815260200190815260200160002060000160016101000a81548160ff02191690831515021790555060019050919050565b60606000600260009054906101000a900473ffffffffffffffffffffffffffffffffffffffff1673ffffffffffffffffffffffffffffffffffffffff163373ffffffffffffffffffffffffffffffffffffffff161461051557600080fd5b6060604051806020016040528060008152509050600080905060008090505b60018054905081101561064d57816001828154811061054f57fe5b9060005260206000209060020201600101541115610642576001818154811061057457fe5b90600052602060002090600202016000018054600181600116156101000203166002900480601f0160208091040260200160405190810160405280929190818152602001828054600181600116156101000203166002900480156106195780601f106105ee57610100808354040283529160200191610619565b820191906000526020600020905b8154815290600101906020018083116105fc57829003601f168201915b505050505092506001818154811061062d57fe5b90600052602060002090600202016001015491505b806001019050610534565b5081819350935050509091565b6001818154811061066757fe5b9060005260206000209060020201600091509050806000018054600181600116156101000203166002900480601f0160208091040260200160405190810160405280929190818152602001828054600181600116156101000203166002900480156107135780601f106106e857610100808354040283529160200191610713565b820191906000526020600020905b8154815290600101906020018083116106f657829003601f168201915b5050505050908060010154905082565b600260009054906101000a900473ffffffffffffffffffffffffffffffffffffffff1673ffffffffffffffffffffffffffffffffffffffff163373ffffffffffffffffffffffffffffffffffffffff161461077d57600080fd5b6001604051806040016040528084848080601f016020809104026020016040519081016040528093929190818152602001838380828437600081840152601f19601f8201169050808301925050505050505081526020016000815250908060018154018082558091505090600182039060005260206000209060020201600090919290919091506000820151816000019080519060200190610820929190610953565b50602082015181600101555050505050565b600260009054906101000a900473ffffffffffffffffffffffffffffffffffffffff1673ffffffffffffffffffffffffffffffffffffffff163373ffffffffffffffffffffffffffffffffffffffff161461088c57600080fd5b60016000808373ffffffffffffffffffffffffffffffffffffffff1673ffffffffffffffffffffffffffffffffffffffff16815260200190815260200160002060000160006101000a81548160ff02191690831515021790555050565b600260009054906101000a900473ffffffffffffffffffffffffffffffffffffffff1681565b60006020528060005260406000206000915090508060000160009054906101000a900460ff16908060000160019054906101000a900460ff16908060010154905083565b828054600181600116156101000203166002900490600052602060002090601f016020900481019282601f1061099457805160ff19168380011785556109c2565b828001600101855582156109c2579182015b828111156109c15782518255916020019190600101906109a6565b5b5090506109cf91906109d3565b5090565b6109f591905b808211156109f15760008160009055506001016109d9565b5090565b9056fea265627a7a7231582083d40e33c53df04a031c30ef12de62334b65417ca43b148e3e8e502e4cace05a64736f6c63430005100032",
  "source": "// SPDX-License-Identifier: MIT\npragma solidity >=0.4.21 <0.9.0;\n\ncontract Voting{\n\n    struct Voter{\n        bool auth;\n        bool voted;\n        uint256 vote;\n    }\n\n    struct candidate{\n        string name;\n        uint256 voteCount;\n    }\n\n    mapping(address => Voter) public Voters;\n    candidate [] public candidates;\n    address public admin;\n    constructor() public{\n        admin = msg.sender;\n    }\n    modifier onlyOwner{\n        require(msg.sender == admin);\n        _;\n    }\n\n    function Addvoter(address _addr)external onlyOwner{\n        Voters[_addr].auth = true;\n    }\n\n    function Addcandidate(string calldata _name) external onlyOwner{\n        candidates.push(candidate(_name,0));\n    }\n\n    function vote(uint _num) external returns(bool){\n        require(Voters[msg.sender].auth);\n        require(!Voters[msg.sender].voted);\n        candidates[_num].voteCount += 1;\n        Voters[msg.sender].voted = true;\n        return true;\n    }\n\n    function declareWinner()external view onlyOwner returns(string memory,uint256){\n        string memory winner = \"\";\n        uint currentVote = 0;\n        for(uint i = 0; i < candidates.length; ++i){\n            if(candidates[i].voteCount > currentVote){\n                winner = candidates[i].name;\n                currentVote = candidates[i].voteCount;\n            }}\n        return (winner,currentVote);\n\n}\n\n}",
  "sourcePath": "/home/aduttya/Documents/voting/contracts/voting.sol",
  "compiler": {
    "name": "solc",
    "version": "0.5.16+commit.9c3226ce.Emscripten.clang"
  },
  "schemaVersion": "3.4.3",
  "updatedAt": "2021-08-30T09:12:21.465Z",
  "networkType": "ethereum",
  "devdoc": {
    "methods": {}
  },
  "userdoc": {
    "methods": {}
  }
}