{
  "contractName": "Voting",
  "abi": [
    {
      "inputs": [],
      "payable": false,
      "stateMutability": "nonpayable",
      "type": "constructor"
    },
    {
      "constant": false,
      "inputs": [
        {
          "internalType": "address",
          "name": "_addr",
          "type": "address"
        }
      ],
      "name": "addCandidate",
      "outputs": [
        {
          "internalType": "bool",
          "name": "",
          "type": "bool"
        }
      ],
      "payable": true,
      "stateMutability": "payable",
      "type": "function"
    },
    {
      "constant": false,
      "inputs": [
        {
          "internalType": "address",
          "name": "_addr",
          "type": "address"
        }
      ],
      "name": "addVoter",
      "outputs": [
        {
          "internalType": "bool",
          "name": "",
          "type": "bool"
        }
      ],
      "payable": false,
      "stateMutability": "nonpayable",
      "type": "function"
    }
  ],
  "bytecode": "0x608060405234801561001057600080fd5b5033600160006101000a81548173ffffffffffffffffffffffffffffffffffffffff021916908373ffffffffffffffffffffffffffffffffffffffff160217905550600080819055506103d7806100686000396000f3fe6080604052600436106100295760003560e01c80633acd75f81461002e578063f4ab9adf1461008a575b600080fd5b6100706004803603602081101561004457600080fd5b81019080803573ffffffffffffffffffffffffffffffffffffffff1690602001909291905050506100f3565b604051808215151515815260200191505060405180910390f35b34801561009657600080fd5b506100d9600480360360208110156100ad57600080fd5b81019080803573ffffffffffffffffffffffffffffffffffffffff16906020019092919050505061028d565b604051808215151515815260200191505060405180910390f35b6000600160009054906101000a900473ffffffffffffffffffffffffffffffffffffffff1673ffffffffffffffffffffffffffffffffffffffff163373ffffffffffffffffffffffffffffffffffffffff161461014f57600080fd5b600080815480929190600101919050555081600260008054815260200190815260200160002060006101000a81548173ffffffffffffffffffffffffffffffffffffffff021916908373ffffffffffffffffffffffffffffffffffffffff160217905550600160036000600260008054815260200190815260200160002060009054906101000a900473ffffffffffffffffffffffffffffffffffffffff1673ffffffffffffffffffffffffffffffffffffffff1673ffffffffffffffffffffffffffffffffffffffff168152602001908152602001600020819055506001600560008473ffffffffffffffffffffffffffffffffffffffff1673ffffffffffffffffffffffffffffffffffffffff16815260200190815260200160002060006101000a81548160ff02191690831515021790555060019050919050565b6000600160009054906101000a900473ffffffffffffffffffffffffffffffffffffffff1673ffffffffffffffffffffffffffffffffffffffff163373ffffffffffffffffffffffffffffffffffffffff16146102e957600080fd5b6000600460008473ffffffffffffffffffffffffffffffffffffffff1673ffffffffffffffffffffffffffffffffffffffff16815260200190815260200160002060006101000a81548160ff0219169083151502179055506001600660008473ffffffffffffffffffffffffffffffffffffffff1673ffffffffffffffffffffffffffffffffffffffff16815260200190815260200160002060006101000a81548160ff0219169083151502179055506001905091905056fea265627a7a723158206d78f58e0ddf8b770fbe9c1d86fed14d2af8012d2a1640483199124fca615bdb64736f6c63430005100032",
  "source": "// SPDX-License-Identifier: MIT\npragma solidity >=0.4.21 <0.9.0;\n\ncontract Voting{\n    uint totalCondidates;\n    address owner;\n\n    constructor()public{\n        owner = msg.sender;\n        totalCondidates = 0;\n    }\n\n    modifier onlyOwner(){\n        require(msg.sender == owner);\n        _;\n    }\n\n\n    mapping(uint256 => address) candidates;\n    mapping (address=>uint256) candidatesVote;\n    mapping(address => bool) voted;\n    mapping(address=>bool) IsCandidate;\n    mapping(address=>bool) IsVoter;\n\n    function addCandidate(address _addr) onlyOwner external payable returns(bool){\n        totalCondidates++;\n        candidates[totalCondidates] = _addr;\n        candidatesVote[candidates[totalCondidates]] = 1;\n        IsCandidate[_addr] = true;\n        return true;\n    }\n\n    function addVoter(address _addr) onlyOwner external returns(bool){\n            voted[_addr] = false;\n            IsVoter[_addr] = true;\n            return true;\n        }\n}\n\ncontract Ballot is Voting{\n\n    function vote(uint _num)external returns(bool){\n        require(IsVoter[msg.sender] == true,'voter must be registered');\n        require(voted[msg.sender] == false,'already voted');\n        require(IsCandidate[candidates[_num]] == true,'Not a valid candidate');\n        candidatesVote[candidates[_num]]++;\n        voted[msg.sender] = true;\n        return true;\n\n\n    }\n\n}\n",
  "sourcePath": "/home/aduttya/Documents/voting/contracts/voting.sol",
  "compiler": {
    "name": "solc",
    "version": "0.5.16+commit.9c3226ce.Emscripten.clang"
  },
  "schemaVersion": "3.4.3",
  "updatedAt": "2021-08-26T11:08:00.232Z",
  "networkType": "ethereum",
  "devdoc": {
    "methods": {}
  },
  "userdoc": {
    "methods": {}
  }
}